{
    "contractName": "Defi",
    "abi": [
        {
            "constant": false,
            "inputs": [
                {
                    "name": "_amt",
                    "type": "uint256"
                },
                {
                    "name": "_to",
                    "type": "address"
                }
            ],
            "name": "withdraw_normal",
            "outputs": [],
            "payable": true,
            "stateMutability": "payable",
            "type": "function"
        },
        {
            "constant": false,
            "inputs": [
                {
                    "name": "_numberOfDays",
                    "type": "uint256"
                },
                {
                    "name": "_amount",
                    "type": "uint256"
                }
            ],
            "name": "Fixed_Deposit",
            "outputs": [],
            "payable": true,
            "stateMutability": "payable",
            "type": "function"
        },
        {
            "constant": true,
            "inputs": [],
            "name": "deadline",
            "outputs": [
                {
                    "name": "",
                    "type": "uint256"
                }
            ],
            "payable": false,
            "stateMutability": "view",
            "type": "function"
        },
        {
            "constant": true,
            "inputs": [],
            "name": "createTime",
            "outputs": [
                {
                    "name": "",
                    "type": "uint256"
                }
            ],
            "payable": false,
            "stateMutability": "view",
            "type": "function"
        },
        {
            "constant": true,
            "inputs": [],
            "name": "FD_balance",
            "outputs": [
                {
                    "name": "",
                    "type": "uint256"
                }
            ],
            "payable": false,
            "stateMutability": "view",
            "type": "function"
        },
        {
            "constant": true,
            "inputs": [],
            "name": "owner",
            "outputs": [
                {
                    "name": "",
                    "type": "address"
                }
            ],
            "payable": false,
            "stateMutability": "view",
            "type": "function"
        },
        {
            "constant": false,
            "inputs": [
                {
                    "name": "_amount",
                    "type": "uint256"
                },
                {
                    "name": "_recipient",
                    "type": "address"
                }
            ],
            "name": "FD_withdraw",
            "outputs": [],
            "payable": true,
            "stateMutability": "payable",
            "type": "function"
        },
        {
            "constant": true,
            "inputs": [],
            "name": "balance",
            "outputs": [
                {
                    "name": "",
                    "type": "uint256"
                }
            ],
            "payable": false,
            "stateMutability": "view",
            "type": "function"
        },
        {
            "constant": false,
            "inputs": [
                {
                    "name": "_amount",
                    "type": "uint256"
                }
            ],
            "name": "deposit",
            "outputs": [],
            "payable": false,
            "stateMutability": "nonpayable",
            "type": "function"
        },
        {
            "constant": true,
            "inputs": [],
            "name": "FD_balwithinterest",
            "outputs": [
                {
                    "name": "",
                    "type": "uint256"
                }
            ],
            "payable": false,
            "stateMutability": "view",
            "type": "function"
        },
        {
            "constant": false,
            "inputs": [],
            "name": "Time",
            "outputs": [],
            "payable": false,
            "stateMutability": "nonpayable",
            "type": "function"
        },
        {
            "inputs": [],
            "payable": true,
            "stateMutability": "payable",
            "type": "constructor"
        }
    ],
    "bytecode": "6080604052346002556104ff806100176000396000f3fe6080604052600436106100b9576000357c0100000000000000000000000000000000000000000000000000000000900480638da5cb5b116100815780638da5cb5b14610160578063979d244714610191578063b69ef8a8146101bd578063b6b55f25146101d2578063e8268f53146101fc578063f8e157ea14610211576100b9565b80630ce17d62146100be5780631f8e78e6146100ec57806329dcb0cf1461010f57806361dcd7ab146101365780636f5e59331461014b575b600080fd5b6100ea600480360360408110156100d457600080fd5b5080359060200135600160a060020a0316610226565b005b6100ea6004803603604081101561010257600080fd5b508035906020013561027e565b34801561011b57600080fd5b5061012461031e565b60408051918252519081900360200190f35b34801561014257600080fd5b50610124610324565b34801561015757600080fd5b5061012461032a565b34801561016c57600080fd5b50610175610330565b60408051600160a060020a039092168252519081900360200190f35b6100ea600480360360408110156101a757600080fd5b5080359060200135600160a060020a031661033f565b3480156101c957600080fd5b506101246103cc565b3480156101de57600080fd5b506100ea600480360360208110156101f557600080fd5b50356103d2565b34801561020857600080fd5b50610124610442565b34801561021d57600080fd5b506100ea610448565b60025482111561023557600080fd5b6002805492909203909155604051349190600160a060020a0382169083156108fc029084906000818181858888f19350505050158015610279573d6000803e3d6000fd5b505050565b6000805473ffffffffffffffffffffffffffffffffffffffff191633179055426201518083020160015560035481810181811015610307576040517f08c379a000000000000000000000000000000000000000000000000000000000815260040180806020018281038252604381526020018061044f6043913960600191505060405180910390fd5b60038190556127106107d082020460045550505050565b60015481565b60055481565b60035481565b600054600160a060020a031681565b600054600160a060020a0316331461035657600080fd5b60015442101561036557600080fd5b60035482111561037457600080fd5b6003805492909203909155604051349190600160a060020a0382169083156108fc029084906000818181858888f193505050501580156103b8573d6000803e3d6000fd5b508160025410156103c857600080fd5b5050565b60025481565b60025481810181811015610431576040517f08c379a00000000000000000000000000000000000000000000000000000000081526004018080602001828103825260428152602001806104926042913960600191505060405180910390fd5b600281905581811161027957600080fd5b60045481565b4260055556fe556e646572666c6f7720636865636b20746f206d616b652073757265206465706f73697420616d6f756e742069732067726561746572207468616e2062616c616e63654f766572666c6f7720636865636b20746f206d616b652073757265206465706f73697420616d6f756e742069732067726561746572207468616e2062616c616e6365a165627a7a723058202222511b46236761bd11bce8132bbfe5756301aa9e02b301488bbeada0c9c6e20029",
    "sourcePath": "c:/Users/leo james/Desktop/for truffle testing man/contracts/Defi.sol",
    "compiler": {
        "name": "solc",
        "version": "0.5.3+commit.10d17f24"
    },
    "functionHashes": {
        "FD_balance()": "6f5e5933",
        "FD_balwithinterest()": "e8268f53",
        "FD_withdraw(uint256,address)": "979d2447",
        "Fixed_Deposit(uint256,uint256)": "1f8e78e6",
        "Time()": "f8e157ea",
        "balance()": "b69ef8a8",
        "createTime()": "61dcd7ab",
        "deadline()": "29dcb0cf",
        "deposit(uint256)": "b6b55f25",
        "owner()": "8da5cb5b",
        "withdraw_normal(uint256,address)": "0ce17d62"
    },
    "gasEstimates": {
        "creation": {
            "codeDepositCost": "255800",
            "executionCost": "20275",
            "totalCost": "276075"
        },
        "external": {
            "FD_balance()": "492",
            "FD_balwithinterest()": "491",
            "FD_withdraw(uint256,address)": "infinite",
            "Fixed_Deposit(uint256,uint256)": "infinite",
            "Time()": "20264",
            "balance()": "447",
            "createTime()": "470",
            "deadline()": "448",
            "deposit(uint256)": "infinite",
            "owner()": "556",
            "withdraw_normal(uint256,address)": "infinite"
        }
    }
}