{
  "contractName": "Defi",
  "abi": [
    {
      "constant": true,
      "inputs": [],
      "name": "deadline",
      "outputs": [
        {
          "name": "",
          "type": "uint256"
        }
      ],
      "payable": false,
      "stateMutability": "view",
      "type": "function"
    },
    {
      "constant": true,
      "inputs": [],
      "name": "createTime",
      "outputs": [
        {
          "name": "",
          "type": "uint256"
        }
      ],
      "payable": false,
      "stateMutability": "view",
      "type": "function"
    },
    {
      "constant": true,
      "inputs": [],
      "name": "FD_balance",
      "outputs": [
        {
          "name": "",
          "type": "uint256"
        }
      ],
      "payable": false,
      "stateMutability": "view",
      "type": "function"
    },
    {
      "constant": true,
      "inputs": [],
      "name": "owner",
      "outputs": [
        {
          "name": "",
          "type": "address"
        }
      ],
      "payable": false,
      "stateMutability": "view",
      "type": "function"
    },
    {
      "constant": true,
      "inputs": [],
      "name": "balance",
      "outputs": [
        {
          "name": "",
          "type": "uint256"
        }
      ],
      "payable": false,
      "stateMutability": "view",
      "type": "function"
    },
    {
      "constant": true,
      "inputs": [],
      "name": "FD_balwithinterest",
      "outputs": [
        {
          "name": "",
          "type": "uint256"
        }
      ],
      "payable": false,
      "stateMutability": "view",
      "type": "function"
    },
    {
      "inputs": [],
      "payable": true,
      "stateMutability": "payable",
      "type": "constructor"
    },
    {
      "constant": false,
      "inputs": [
        {
          "name": "_amount",
          "type": "uint256"
        }
      ],
      "name": "deposit",
      "outputs": [],
      "payable": false,
      "stateMutability": "nonpayable",
      "type": "function"
    },
    {
      "constant": false,
      "inputs": [
        {
          "name": "_amt",
          "type": "uint256"
        },
        {
          "name": "_to",
          "type": "address"
        }
      ],
      "name": "withdraw_normal",
      "outputs": [],
      "payable": true,
      "stateMutability": "payable",
      "type": "function"
    },
    {
      "constant": false,
      "inputs": [],
      "name": "Time",
      "outputs": [],
      "payable": false,
      "stateMutability": "nonpayable",
      "type": "function"
    },
    {
      "constant": false,
      "inputs": [
        {
          "name": "_numberOfDays",
          "type": "uint256"
        },
        {
          "name": "_amount",
          "type": "uint256"
        }
      ],
      "name": "Fixed_Deposit",
      "outputs": [],
      "payable": true,
      "stateMutability": "payable",
      "type": "function"
    },
    {
      "constant": false,
      "inputs": [
        {
          "name": "_amount",
          "type": "uint256"
        },
        {
          "name": "_recipient",
          "type": "address"
        }
      ],
      "name": "FD_withdraw",
      "outputs": [],
      "payable": true,
      "stateMutability": "payable",
      "type": "function"
    }
  ],
  "bytecode": "0x6080604052346002819055506106d08061001a6000396000f3fe6080604052600436106100b9576000357c0100000000000000000000000000000000000000000000000000000000900480638da5cb5b116100815780638da5cb5b146101c5578063979d24471461021c578063b69ef8a81461026a578063b6b55f2514610295578063e8268f53146102d0578063f8e157ea146102fb576100b9565b80630ce17d62146100be5780631f8e78e61461010c57806329dcb0cf1461014457806361dcd7ab1461016f5780636f5e59331461019a575b600080fd5b61010a600480360360408110156100d457600080fd5b8101908080359060200190929190803573ffffffffffffffffffffffffffffffffffffffff169060200190929190505050610312565b005b6101426004803603604081101561012257600080fd5b810190808035906020019092919080359060200190929190505050610381565b005b34801561015057600080fd5b50610159610464565b6040518082815260200191505060405180910390f35b34801561017b57600080fd5b5061018461046a565b6040518082815260200191505060405180910390f35b3480156101a657600080fd5b506101af610470565b6040518082815260200191505060405180910390f35b3480156101d157600080fd5b506101da610476565b604051808273ffffffffffffffffffffffffffffffffffffffff1673ffffffffffffffffffffffffffffffffffffffff16815260200191505060405180910390f35b6102686004803603604081101561023257600080fd5b8101908080359060200190929190803573ffffffffffffffffffffffffffffffffffffffff16906020019092919050505061049b565b005b34801561027657600080fd5b5061027f610585565b6040518082815260200191505060405180910390f35b3480156102a157600080fd5b506102ce600480360360208110156102b857600080fd5b810190808035906020019092919050505061058b565b005b3480156102dc57600080fd5b506102e5610610565b6040518082815260200191505060405180910390f35b34801561030757600080fd5b50610310610616565b005b816002541015151561032357600080fd5b816002600082825403925050819055503491508073ffffffffffffffffffffffffffffffffffffffff166108fc839081150290604051600060405180830381858888f1935050505015801561037c573d6000803e3d6000fd5b505050565b336000806101000a81548173ffffffffffffffffffffffffffffffffffffffff021916908373ffffffffffffffffffffffffffffffffffffffff16021790555062015180820242016001819055506000600354905060008260035401905081811015151561043a576040517f08c379a00000000000000000000000000000000000000000000000000000000081526004018080602001828103825260438152602001806106206043913960600191505060405180910390fd5b8060038190555061271060026103e8600354020281151561045757fe5b0460048190555050505050565b60015481565b60055481565b60035481565b6000809054906101000a900473ffffffffffffffffffffffffffffffffffffffff1681565b6000809054906101000a900473ffffffffffffffffffffffffffffffffffffffff1673ffffffffffffffffffffffffffffffffffffffff163373ffffffffffffffffffffffffffffffffffffffff161415156104f657600080fd5b600154421015151561050757600080fd5b816003541015151561051857600080fd5b816003600082825403925050819055503491508073ffffffffffffffffffffffffffffffffffffffff166108fc839081150290604051600060405180830381858888f19350505050158015610571573d6000803e3d6000fd5b5081600254101561058157600080fd5b5050565b60025481565b600060025490506000826002540190508181101515156105f6576040517f08c379a00000000000000000000000000000000000000000000000000000000081526004018080602001828103825260428152602001806106636042913960600191505060405180910390fd5b80600281905550818111151561060b57600080fd5b505050565b60045481565b4260058190555056fe556e646572666c6f7720636865636b20746f206d616b652073757265206465706f73697420616d6f756e742069732067726561746572207468616e2062616c616e63654f766572666c6f7720636865636b20746f206d616b652073757265206465706f73697420616d6f756e742069732067726561746572207468616e2062616c616e6365a165627a7a72305820e8736a8d9db4afd2b105512243c87ea570c2477b88223aaf06fa5c204d1e29ad0029",
  "source": "// Defi - This is a testing phase for Fixed Deposit generating smart contract that deals with relative time interest generation and withdrawl.\r\n// Also a simple wallet is attached to this smart contract - Deposit and Withdraw (integers).\r\n// contract time and relative time is prefixed and should be invoked during the function invocation.\r\n// SPDX-License-Identifier: MIT\r\npragma solidity 0.5.3;\r\n\r\ncontract Defi{\r\n\r\n    address public owner;\r\n    uint public deadline;\r\n    uint public balance;\r\n    uint public FD_balance;\r\n    uint public FD_balwithinterest;\r\n    uint256 public createTime;\r\n    mapping(uint256 => address) sendEther;\r\n\r\n\r\n    constructor()payable public{\r\n        balance = msg.value;\r\n    }\r\n\r\n    modifier onlyOwner() {\r\n        require(msg.sender == owner);\r\n        _;\r\n    }\r\n\r\n\r\n    function deposit(uint _amount)public{\r\n        uint oldbalance = balance;\r\n        uint newbalance = balance + _amount;\r\n        require(newbalance >= oldbalance,\"Overflow check to make sure deposit amount is greater than balance\");\r\n        balance = newbalance;\r\n        if (newbalance <= oldbalance){\r\n           revert();\r\n        }\r\n    }\r\n\r\n\r\n    function withdraw_normal(uint256 _amt,address payable _to) public payable{\r\n\t require(balance >= _amt);\r\n\t balance -= _amt;\r\n\t _amt = msg.value;\r\n\t _to.transfer(_amt);\t\t\r\n\t}\r\n\r\n\r\n    function Time() public {\t// This needs to be activated while making a deposit for F.D\r\n        createTime = now;\r\n    \t}\r\n\r\n\r\n    function Fixed_Deposit(uint256 _numberOfDays,uint _amount) public payable {\t\t// Make sure to trigger the time during function invocation\r\n        owner = msg.sender;\r\n        deadline = now + (_numberOfDays * 1 days);\r\n        uint oldbalance = FD_balance;\r\n        uint newbalance = FD_balance + _amount;\r\n        require(newbalance >= oldbalance,\"Underflow check to make sure deposit amount is greater than balance\");\r\n        FD_balance = newbalance;\r\n        FD_balwithinterest = FD_balance * 1000 * 2/10000;\r\n    \t}\r\n\r\n\r\n    function FD_withdraw(uint _amount,address payable _recipient)public payable onlyOwner{\r\n        require(now >= deadline);\r\n        require(FD_balance >= _amount);\r\n        FD_balance -= _amount;\r\n        _amount = msg.value;\r\n        _recipient.transfer(_amount);\r\n        \r\n        if (balance < _amount){\r\n            revert();\r\n    \t} \r\n    }\r\n}\r\n",
  "sourcePath": "C:\\Users\\leo james\\Desktop\\for truffle testing man\\contracts\\Defi.sol",
  "compiler": {
    "name": "solc",
    "version": "0.5.3+commit.10d17f24.Emscripten.clang"
  },
  "schemaVersion": "3.4.3",
  "updatedAt": "2022-01-10T19:13:24.928Z",
  "networkType": "ethereum",
  "devdoc": {
    "methods": {}
  },
  "userdoc": {
    "methods": {}
  }
}